:10000000020B74BB010A89828A83E0F5F0A3E02227
:10001000500687F009E71922BBFE07E3F5F009E374
:10002000192289828A83E493F5F074019322BB013B
:100030000789828A83020227500B09C5F027F7C57A
:10004000F01937F722BBFE0D09F8E325F0F3C5F0F0
:1000500019E338F322F889828A8374019325F0C565
:10006000F0F8E4933822BB010A89828A83F0E5F034
:10007000A3F0225006F709A7F01922BBFE06F3E50C
:10008000F009F31922E88FF0A4CC8BF0A42CFCE942
:100090008EF0A42CFC8AF0EDA42CFCEA8EF0A4CD0A
:1000A000A8F08BF0A42DCC3825F0FDE98FF0A42C1E
:1000B000CD35F0FCEB8EF0A4FEA9F0EB8FF0A4CFD1
:1000C000C5F02ECD39FEE43CFCEAA42DCE35F0FD82
:1000D000E43CFC2275F008758200EF2FFFEE33FE42
:1000E000CD33CDCC33CCC58233C5829BED9AEC9910
:1000F000E58298400CF582EE9BFEED9AFDEC99FCB2
:100100000FD5F0D6E4CEFBE4CDFAE4CCF9A88222F8
:10011000B800C1B90059BA002DEC8BF084CFCECD18
:10012000FCE5F0CBF97818EF2FFFEE33FEED33FD51
:10013000EC33FCEB33FB10D703994004EB99FB0F36
:10014000D8E5E4F9FA227818EF2FFFEE33FEED330D
:10015000FDEC33FCC933C910D7059BE99A4007EC85
:100160009BFCE99AF90FD8E0E4C9FAE4CCFB2275CC
:10017000F010EF2FFFEE33FEED33FDCC33CCC83360
:10018000C810D7079BEC9AE899400AED9BFDEC9AC2
:10019000FCE899F80FD5F0DAE4CDFBE4CCFAE4C83A
:1001A000F922EB9FF5F0EA9E42F0E99D42F0E89CCF
:1001B00045F022BB010789828A830202495005E982
:1001C000F802023DBBFE05E9F802025589828A83E6
:1001D000020261BB010789828A830202B35005E9EA
:1001E000F80202A7BBFE05E9F80202BF22BB010725
:1001F00089828A8302027E5005E9F8020271BBFE01
:1002000005E9F802028A89828A83020297BB010704
:1002100089828A830202E45005E9F80202CBBBFE20
:1002200005E9F802031522C5F0F8A3E028F0C5F0AF
:10023000F8E582158270021583E038F022E6FC08AA
:10024000E6FD08E6FE08E6FF22E0FCA3E0FDA3E0F1
:10025000FEA3E0FF22E2FC08E2FD08E2FE08E2FF66
:1002600022E493FC740193FD740293FE740393FFE4
:1002700022E6FB08E6F908E6FA08E6CBF822E0F801
:10028000A3E0F9A3E0FAA3E0FB22E2FB08E2F9080D
:10029000E2FA08E2CBF822E493F8740193F97402CD
:1002A00093FA740393FB22ECF608EDF608EEF608D9
:1002B000EFF622ECF0A3EDF0A3EEF0A3EFF022ECCA
:1002C000F208EDF208EEF208EFF222D083D082E4D9
:1002D00093F608740193F608740293F60874039376
:1002E000F6740473A8828583F0D083D0821202FB57
:1002F0001202FB1202FB1202FBE473E493A3C58318
:10030000C5F0C583C8C582C8F0A3C583C5F0C58341
:10031000C8C582C822D083D082E493F208740193C6
:10032000F208740293F208740393F27404738F5406
:10033000E4F557F558F55BF55C75B0FE85B055539F
:1003400055F0E55564F0605D120DE285B0555355EA
:10035000F0E55564F0604E85B055E5552482601B8C
:1003600024C0601224E0600924F07012E4F5568085
:100370000D75560180087556028003755603E555C4
:1003800064F0600885B0555355F080F2E556120EC2
:1003900006E556B4030CAF5412084B7F2F12099D8B
:1003A0008003120C7C75B0FD85B0555355F0E555B2
:1003B00064F0605D120DE285B0555355F0E555646B
:1003C000F0604E85B055E5552483601B24C0601253
:1003D00024E0600924F07012755604800D755605EE
:1003E00080087556068003755607E55564F0600869
:1003F00085B0555355F080F2E556120E06E556B419
:10040000070CAF5412084B7F2A12099D8003120C6F
:100410007C75B0FB85B0555355F0E55564F0605DD3
:10042000120DE285B0555355F0E55564F0604E85E8
:10043000B055E5552485601B24C0601224E0600996
:1004400024F07012755608800D755609800875568F
:100450000A800375560BE55564F0600885B0555366
:1004600055F080F2E556120E06E556B40B0CAF546B
:1004700012084B7F2D12099D8003120C7C75B0F77A
:1004800085B0555355F0E55564F070030205F3123D
:100490000DE285B0555355F0E55564F07003020543
:1004A000F385B055E5552489601B24C0601224E013
:1004B000600924F0701275560C800D75560D800879
:1004C00075560E800375560FE555B4B721D3E55820
:1004D000941FE55764809480501485B0557F3C7E0E
:1004E00000120DE60558E55870DE055780DAE5552F
:1004F000B47721D3E55C941FE55B6480948050144D
:1005000085B0557F3C7E00120DE6055CE55C70DE33
:10051000055B80DAE55564B76014E5556477600ED5
:10052000E55564F0600885B0555355F080F2C3E599
:1005300058941EE557648094804037120A9FE4F572
:1005400059F55A7416255AF582740F3559F583E416
:1005500093FF120E0B055AE55A70020559C3940415
:10056000E5596480948040DB7F207E03120DE675A0
:100570005610C3E55C941EE55B648094804037129E
:100580000CF8E4F559F55A741B255AF582740F35A9
:1005900059F583E493FF120E0B055AE55A700205D4
:1005A00059C39404E5596480948040DB7F207E0326
:1005B000120DE675560EE556120E067FF47E0112F8
:1005C0000DE6E556B40F0AAF5412084B7F2B120903
:1005D0009DE556B40D06E4FFFE120C85E556B40EFB
:1005E0000AAF5412084B7F3D12099DE556B40C0327
:1005F000120DBB22E4F545F54675B0FE85B04353B8
:1006000043F0E54364F06056120DE285B043534376
:10061000F0E54364F0604785B043E5432482601B06
:1006200024C0601224E0600924F07012E4F54480D4
:100630000D75440180087544028003754403E54349
:1006400064F0600885B0435343F080F2120E04E575
:1006500044B403077F2F12099D8003120C0075B06C
:10066000FD85B0435343F0E54364F06056120DE25C
:1006700085B0435343F0E54364F0604785B043E5FC
:10068000432483601B24C0601224E0600924F070BE
:1006900012754404800D7544058008754406800376
:1006A000754407E54364F0600885B0435343F08028
:1006B000F2120E04E544B407077F2A12099D800355
:1006C000120C0075B0FB85B0435343F0E54364F072
:1006D0006056120DE285B0435343F0E54364F06089
:1006E0004785B043E5432485601B24C0601224E0A5
:1006F000600924F07012754408800D754409800863
:1007000075440A800375440BE54364F0600885B0C6
:10071000435343F080F2120E04E544B40B077F2DDF
:1007200012099D8003120C0075B0F785B043534346
:10073000F0E54364F0700302084A120DE285B0430D
:100740005343F0E54364F0700302084A85B043E583
:10075000432489601B24C0601224E0600924F070E7
:100760001275440C800D75440D800875440E80038D
:1007700075440FE543B4B721D3E546941FE54564BE
:10078000809480501485B0437F3C7E00120DE605B6
:1007900046E54670DE054580DAE54364B7600EE560
:1007A0004364F0600885B0435343F080F2C3E546EC
:1007B000941EE545648094804065754458120A9FF4
:1007C000E4F547F54874162548F582740F3547F56A
:1007D00083E493FF120E0B0548E54870020547C3FA
:1007E0009404E5476480948040DB7F207E03120DF3
:1007F000E67F80120E44E4F547F5487F20120E0B89
:100800000548E54870020547C39411E547648094A4
:100810008040E87F80120E447F207E03120DE6E5C3
:1008200044640F6005E544B40D18120E04E544B4A9
:100830000F057F2B12099DE544B40D06E4FFFE125F
:100840000C09E544B40C03120DBB228F5DE4F55E88
:10085000F55FAB32AA33A934F5F0120066E55DB45A
:100860002F51AB40AA41A9421201EDC000C001C006
:1008700002C003AB2FAA30A9311201B3D003D002BA
:10088000D001D000120110AE02AF038E5E8F5FABBD
:100890002FAA30A931C003C002C0011201B3AB407E
:1008A000AA41A9421201ED120110D001D002D003D9
:1008B0001201D3E55DB42A24AB2FAA30A931C003BD
:1008C000C002C0011201B3AB40AA41A9421201ED1E
:1008D000120085D001D002D0031201D3E55DB42D02
:1008E0002EAB2FAA30A931C003C002C0011201B340
:1008F000AB40AA41A9421201EDC3EF9BFFEE9AFE65
:10090000ED99FDEC98FCD001D002D0031201D3E5A3
:100910005DB42B2DAB2FAA30A931C003C002C0019A
:100920001201B3AB40AA41A9421201EDEF2BFFEE39
:100930003AFEED39FDEC38FCD001D002D0031201B3
:10094000D3AB2FAA30A9311201B3E4FBFAF9F8D3E3
:100950001201A25006E55F455E6034E4F560F56182
:1009600074112561F582740F3560F583E493FF12ED
:100970000E0B0561E56170020560C39405E56064D6
:1009800080948040DB7FF47E01120DE6120DBBAB3C
:1009900040AA41A94212020D00000000228F49AB7B
:1009A00032AA33A934E4F5F0120066E549B42B0706
:1009B0007F2B12032E80F9E549B42D077F2D1203FA
:1009C0002E80F9E549B42A077F2A12032E80F9E523
:1009D00049B42F077F2F12032E80F9E549643D604B
:1009E00003020A9EAB2FAA30A9311201B38F518E98
:1009F000508D4F8C4EE4F552F5537F01120E447F1B
:100A0000C0120E44E4F54DF54CF54BF54AE47F0178
:100A1000FEFDFCAB51AA50A94FA84EC31201A24043
:100A200049E47B0AFAF9F8AF51AE50AD4FAC4E1223
:100A30000110AC00AD01AE02AF038F4D8E4C8D4B5B
:100A40008C4AAF51AE50AD4FAC4EE47B0AFAF9F888
:100A50001201108F518E508D4F8C4E0553E55370FF
:100A60000205522425F8A64D80A3D3E5539400E552
:100A70005264809480401874252553F8E6900EF750
:100A800093FF120E0BE55315537002155280DBE4F1
:100A9000F552F5537F80120E4412032E80FB22E4A0
:100AA000F55FF560AB2FAA30A9311201B38F648EC8
:100AB000638D628C61E47F01FEFDFCAB64AA63A9D7
:100AC00062A861C31201A24023AF64AE63AD62AC01
:100AD00061E47B0AFAF9F81201108F648E638D626B
:100AE0008C610560E56070CD055F80C9E56024011B
:100AF000FFE4355FAB39AA3AA93B8FF0120066D20A
:100B0000A0D2A1AB2FAA30A9311201B38F648E639A
:100B10008D628C61AB39AA3AA93B120003FD7F5864
:100B2000120E26C3E5609401E55F64809480404323
:100B3000E47B0AFAF9F8AF64AE63AD62AC6112010E
:100B400010AE02AF038E5D8F5EAF64AE63AD62AC7C
:100B500061E47B0AFAF9F81201108F648E638D62EA
:100B60008C61AF60AD5E120E26E560156070B41545
:100B70005F80B022787FE4F6D8FD758164020BBBFC
:100B8000020EBFE493A3F8E493A34003F68001F2BE
:100B900008DFF48029E493A3F85407240CC8C33376
:100BA000C4540F4420C8834004F456800146F6DF45
:100BB000E4800B0102040810204080900D6AE47E5E
:100BC000019360BCA3FF543F30E509541FFEE4933A
:100BD000A360010ECF54C025E060A840B8E493A301
:100BE000FAE493A3F8E493A3C8C582C8CAC583CA2C
:100BF000F0A3C8C582C8CAC583CADFE9DEE780BEE4
:100C0000E544900F0193FF7E008E498F4AAB32AAD4
:100C100033A934120003C39401E5F064809480404A
:100C200021AB2FAA30A931C003C002C0011201B309
:100C3000E47B0AFAF9F8120085D001D002D0031241
:100C400001D3AB2FAA30A931C003C002C0011201E9
:100C5000EDAE49EE3395E0FDFCEB254AFFEA3EFEA2
:100C6000E93DFDE83CFCD001D002D0031201D3AB3A
:100C700032AA33A934E475F00102002EE556900F34
:100C80000193FF7E008E618F62AB32AA33A93412CA
:100C90000003C39401E5F0648094804021AB40AA36
:100CA00041A942C003C002C0011201B3E47B0AFAA9
:100CB000F9F8120085D001D002D0031201D3AB4065
:100CC000AA41A942C003C002C0011201EDAE61EE0B
:100CD0003395E0FDFCEB2562FFEA3EFEE93DFDE8D1
:100CE0003CFCD001D002D0031201D3AB32AA33A90D
:100CF00034E475F00102002EE4F55DF55ED2A0D279
:100D0000A17F58120E9BAB39AA3AA93BE48FF0128F
:100D100000667F01120E9B755D008F5E755F00752A
:100D20006002AB39AA3AA93B120003FFD3E5609FEA
:100D3000E5F06480F8E55F648098502D74F7255ED7
:100D4000F582740E355DF583E493FF120E0BAF5EF2
:100D5000AE5D120C85AF60120E9B755D008F5E0557
:100D600060E56070BD055F80B922043500000000B9
:100D7000042100000000023C0000023E000003329B
:100D800000003C033900003E032F00003503400003
:100D9000002100E4FEEF3392A000D2A10000C2A126
:100DA000EF25E0FF0EBE08EDD2A00000D2A10000AA
:100DB0000000A2A09200C2A1A20022AB2FAA30A9DB
:100DC0003112020D00000000AB40AA41A9421202FC
:100DD0000D00000000120E747F80120E441205F404
:100DE00080FB7F0A7E00D3EF9400EE940040147DD8
:100DF0006E7C00ED1D70011CED4C70F7EF1F70E66E
:100E00001E80E322E544900EE693FFAB07D290C22A
:100E100091D2A57F057E00120DE68B807F057E00B6
:100E2000120DE6C2A522AC07120EAE7FA0120D93E2
:100E3000AF04120D93AF05120D93120E887F047E3E
:100E400000020DE6AB07C290C291D2A57F057E00DD
:100E5000120DE68B807F057E00120DE6C2A522E40E
:100E6000FED2A1EF25E0FFA2A0E4334207C2A10E0B
:100E7000BE08EE227F01120E447F38120E447F0F0F
:100E8000120E447F06020E44C2A0D2A10000000050
:100E9000D2A000000000C2A0C2A122AD07120EAE77
:100EA0007FA0120D93AF05120D93120ECF22D2A088
:100EB000D2A100000000C2A000000000C2A12212C6
:100EC0000EDE120E747F80120E441205F480FB12A7
:100ED0000EAE7FA1120D93120E5F120E8822D2A6C3
:100EE000E4F580C2A6223132332F3435362A373822
:100EF000392D43303D2B20303132333435363738BD
:100F0000390102030004050600070809000000007B
:100F1000004552524F5273617665007265616400FC
:00000001FF
